{
  "contractName": "RingFarm",
  "abi": [
    {
      "anonymous": false,
      "inputs": [
        {
          "indexed": true,
          "internalType": "address",
          "name": "previousOwner",
          "type": "address"
        },
        {
          "indexed": true,
          "internalType": "address",
          "name": "newOwner",
          "type": "address"
        }
      ],
      "name": "OwnershipTransferred",
      "type": "event"
    },
    {
      "inputs": [],
      "name": "lastTimeStamp",
      "outputs": [
        {
          "internalType": "uint256",
          "name": "",
          "type": "uint256"
        }
      ],
      "stateMutability": "view",
      "type": "function"
    },
    {
      "inputs": [],
      "name": "owner",
      "outputs": [
        {
          "internalType": "address",
          "name": "",
          "type": "address"
        }
      ],
      "stateMutability": "view",
      "type": "function"
    },
    {
      "inputs": [],
      "name": "renounceOwnership",
      "outputs": [],
      "stateMutability": "nonpayable",
      "type": "function"
    },
    {
      "inputs": [],
      "name": "stakedToken",
      "outputs": [
        {
          "internalType": "contract IERC20",
          "name": "",
          "type": "address"
        }
      ],
      "stateMutability": "view",
      "type": "function"
    },
    {
      "inputs": [
        {
          "internalType": "uint256",
          "name": "",
          "type": "uint256"
        }
      ],
      "name": "stakers",
      "outputs": [
        {
          "internalType": "address",
          "name": "",
          "type": "address"
        }
      ],
      "stateMutability": "view",
      "type": "function"
    },
    {
      "inputs": [],
      "name": "totalClaimed",
      "outputs": [
        {
          "internalType": "uint256",
          "name": "",
          "type": "uint256"
        }
      ],
      "stateMutability": "view",
      "type": "function"
    },
    {
      "inputs": [
        {
          "internalType": "address",
          "name": "newOwner",
          "type": "address"
        }
      ],
      "name": "transferOwnership",
      "outputs": [],
      "stateMutability": "nonpayable",
      "type": "function"
    },
    {
      "inputs": [
        {
          "internalType": "uint256",
          "name": "amount",
          "type": "uint256"
        }
      ],
      "name": "addRewards",
      "outputs": [],
      "stateMutability": "nonpayable",
      "type": "function"
    },
    {
      "inputs": [
        {
          "internalType": "uint256",
          "name": "amount",
          "type": "uint256"
        }
      ],
      "name": "WithdrawRewards",
      "outputs": [],
      "stateMutability": "nonpayable",
      "type": "function"
    },
    {
      "inputs": [
        {
          "internalType": "uint256",
          "name": "amount",
          "type": "uint256"
        }
      ],
      "name": "stakeTokens",
      "outputs": [],
      "stateMutability": "nonpayable",
      "type": "function"
    },
    {
      "inputs": [
        {
          "internalType": "uint256",
          "name": "amount",
          "type": "uint256"
        }
      ],
      "name": "withdrawTokens",
      "outputs": [],
      "stateMutability": "nonpayable",
      "type": "function"
    },
    {
      "inputs": [
        {
          "internalType": "uint256",
          "name": "amount",
          "type": "uint256"
        },
        {
          "internalType": "bool",
          "name": "andClaim",
          "type": "bool"
        }
      ],
      "name": "finalizeWithdraw",
      "outputs": [],
      "stateMutability": "nonpayable",
      "type": "function"
    },
    {
      "inputs": [],
      "name": "getRewardsPerDay",
      "outputs": [
        {
          "internalType": "uint256",
          "name": "",
          "type": "uint256"
        }
      ],
      "stateMutability": "view",
      "type": "function"
    },
    {
      "inputs": [
        {
          "internalType": "uint256",
          "name": "rewards",
          "type": "uint256"
        }
      ],
      "name": "setRewardsPerDay",
      "outputs": [],
      "stateMutability": "nonpayable",
      "type": "function"
    },
    {
      "inputs": [],
      "name": "getWithdrawalDuration",
      "outputs": [
        {
          "internalType": "uint256",
          "name": "",
          "type": "uint256"
        }
      ],
      "stateMutability": "view",
      "type": "function"
    },
    {
      "inputs": [
        {
          "internalType": "uint256",
          "name": "timeToWaitInDays",
          "type": "uint256"
        }
      ],
      "name": "setWithdrawalDuration",
      "outputs": [],
      "stateMutability": "nonpayable",
      "type": "function"
    },
    {
      "inputs": [
        {
          "internalType": "uint256",
          "name": "amount",
          "type": "uint256"
        }
      ],
      "name": "claimRewards",
      "outputs": [],
      "stateMutability": "nonpayable",
      "type": "function"
    },
    {
      "inputs": [
        {
          "internalType": "address",
          "name": "token",
          "type": "address"
        }
      ],
      "name": "changeAllowedToken",
      "outputs": [],
      "stateMutability": "nonpayable",
      "type": "function"
    },
    {
      "inputs": [],
      "name": "pauseStaking",
      "outputs": [],
      "stateMutability": "nonpayable",
      "type": "function"
    },
    {
      "inputs": [],
      "name": "unpauseStaking",
      "outputs": [],
      "stateMutability": "nonpayable",
      "type": "function"
    }
  ],
  "bytecode": "0x60806040526001600260146101000a81548160ff021916908315150217905550621275006008553480156200003357600080fd5b5062000054620000486200005a60201b60201c565b6200006260201b60201c565b62000126565b600033905090565b60008060009054906101000a900473ffffffffffffffffffffffffffffffffffffffff169050816000806101000a81548173ffffffffffffffffffffffffffffffffffffffff021916908373ffffffffffffffffffffffffffffffffffffffff1602179055508173ffffffffffffffffffffffffffffffffffffffff168173ffffffffffffffffffffffffffffffffffffffff167f8be0079c531659141344cd1fd0a4f28419497f9722a3daafe3b4186f6b6457e060405160405180910390a35050565b6127f380620001366000396000f3fe608060405234801561001057600080fd5b506004361061012c5760003560e01c806393f4bcde116100ad578063e6c3e97b11610071578063e6c3e97b146102bd578063f2eba834146102d9578063f2fde38b146102f5578063f999c50614610311578063fd5e6dd11461031b5761012c565b806393f4bcde1461023d578063beceed3914610247578063cc7a262e14610263578063d54ad2a114610281578063e4bd248e1461029f5761012c565b80633f3b3b27116100f45780633f3b3b27146101bf578063715018a6146101dd5780637547c7a3146101e75780637a6b1d37146102035780638da5cb5b1461021f5761012c565b80630962ef791461013157806329f384e21461014d5780632f83985114610169578063315a095d146101875780633cc2757b146101a3575b600080fd5b61014b60048036038101906101469190611c55565b61034b565b005b61016760048036038101906101629190611c55565b61061a565b005b610171610706565b60405161017e9190611c91565b60405180910390f35b6101a1600480360381019061019c9190611c55565b610710565b005b6101bd60048036038101906101b89190611c55565b610a28565b005b6101c7610af2565b6040516101d49190611c91565b60405180910390f35b6101e5610af8565b005b61020160048036038101906101fc9190611c55565b610b80565b005b61021d60048036038101906102189190611ce4565b610e3e565b005b6102276111cc565b6040516102349190611d65565b60405180910390f35b6102456111f5565b005b610261600480360381019061025c9190611c55565b6112dd565b005b61026b61145b565b6040516102789190611ddf565b60405180910390f35b610289611481565b6040516102969190611c91565b60405180910390f35b6102a7611487565b6040516102b49190611c91565b60405180910390f35b6102d760048036038101906102d29190611c55565b611491565b005b6102f360048036038101906102ee9190611e26565b611660565b005b61030f600480360381019061030a9190611e26565b611720565b005b610319611818565b005b61033560048036038101906103309190611c55565b611901565b6040516103429190611d65565b60405180910390f35b600c60003373ffffffffffffffffffffffffffffffffffffffff1673ffffffffffffffffffffffffffffffffffffffff16815260200190815260200160002060040160009054906101000a900460ff166103da576040517f08c379a00000000000000000000000000000000000000000000000000000000081526004016103d190611eb0565b60405180910390fd5b6000600c60003373ffffffffffffffffffffffffffffffffffffffff1673ffffffffffffffffffffffffffffffffffffffff168152602001908152602001600020600101541161045f576040517f08c379a000000000000000000000000000000000000000000000000000000000815260040161045690611f1c565b60405180910390fd5b600c60003373ffffffffffffffffffffffffffffffffffffffff1673ffffffffffffffffffffffffffffffffffffffff168152602001908152602001600020600101548111156104e4576040517f08c379a00000000000000000000000000000000000000000000000000000000081526004016104db90611fae565b60405180910390fd5b600554811115610529576040517f08c379a000000000000000000000000000000000000000000000000000000000815260040161052090612040565b60405180910390fd5b600260009054906101000a900473ffffffffffffffffffffffffffffffffffffffff1673ffffffffffffffffffffffffffffffffffffffff166323b872dd3033846040518463ffffffff1660e01b815260040161058893929190612060565b6020604051808303816000875af11580156105a7573d6000803e3d6000fd5b505050506040513d601f19601f820116820180604052508101906105cb91906120ac565b5080600560008282546105de9190612108565b9250508190555080600760008282546105f79190612108565b925050819055508060066000828254610610919061213c565b9250508190555050565b610622611940565b73ffffffffffffffffffffffffffffffffffffffff166106406111cc565b73ffffffffffffffffffffffffffffffffffffffff1614610696576040517f08c379a000000000000000000000000000000000000000000000000000000000815260040161068d906121de565b60405180910390fd5b600081116106d9576040517f08c379a00000000000000000000000000000000000000000000000000000000081526004016106d09061224a565b60405180910390fd5b603c806018836106e9919061226a565b6106f3919061226a565b6106fd919061226a565b60088190555050565b6000600854905090565b600260149054906101000a900460ff1615610760576040517f08c379a000000000000000000000000000000000000000000000000000000000815260040161075790612310565b60405180910390fd5b600081116107a3576040517f08c379a000000000000000000000000000000000000000000000000000000000815260040161079a9061237c565b60405180910390fd5b6000600c60003373ffffffffffffffffffffffffffffffffffffffff1673ffffffffffffffffffffffffffffffffffffffff16815260200190815260200160002060000154116107f257600080fd5b600c60003373ffffffffffffffffffffffffffffffffffffffff1673ffffffffffffffffffffffffffffffffffffffff16815260200190815260200160002060000154811115610877576040517f08c379a000000000000000000000000000000000000000000000000000000000815260040161086e9061240e565b60405180910390fd5b600c60003373ffffffffffffffffffffffffffffffffffffffff1673ffffffffffffffffffffffffffffffffffffffff16815260200190815260200160002060040160019054906101000a900460ff1615610907576040517f08c379a00000000000000000000000000000000000000000000000000000000081526004016108fe906124a0565b60405180910390fd5b61091081611948565b600160009054906101000a900473ffffffffffffffffffffffffffffffffffffffff1673ffffffffffffffffffffffffffffffffffffffff166323b872dd3033846040518463ffffffff1660e01b815260040161096f93929190612060565b6020604051808303816000875af115801561098e573d6000803e3d6000fd5b505050506040513d601f19601f820116820180604052508101906109b291906120ac565b5080600c60003373ffffffffffffffffffffffffffffffffffffffff1673ffffffffffffffffffffffffffffffffffffffff1681526020019081526020016000206000016000828254610a059190612108565b925050819055508060046000828254610a1e9190612108565b9250508190555050565b610a30611940565b73ffffffffffffffffffffffffffffffffffffffff16610a4e6111cc565b73ffffffffffffffffffffffffffffffffffffffff1614610aa4576040517f08c379a0000000000000000000000000000000000000000000000000000000008152600401610a9b906121de565b60405180910390fd5b6000811015610ae8576040517f08c379a0000000000000000000000000000000000000000000000000000000008152600401610adf9061250c565b60405180910390fd5b8060098190555050565b600a5481565b610b00611940565b73ffffffffffffffffffffffffffffffffffffffff16610b1e6111cc565b73ffffffffffffffffffffffffffffffffffffffff1614610b74576040517f08c379a0000000000000000000000000000000000000000000000000000000008152600401610b6b906121de565b60405180910390fd5b610b7e6000611b56565b565b600260149054906101000a900460ff1615610bd0576040517f08c379a0000000000000000000000000000000000000000000000000000000008152600401610bc790612310565b60405180910390fd5b60008111610c13576040517f08c379a0000000000000000000000000000000000000000000000000000000008152600401610c0a9061237c565b60405180910390fd5b600160009054906101000a900473ffffffffffffffffffffffffffffffffffffffff1673ffffffffffffffffffffffffffffffffffffffff166323b872dd3330846040518463ffffffff1660e01b8152600401610c7293929190612060565b6020604051808303816000875af1158015610c91573d6000803e3d6000fd5b505050506040513d601f19601f82011682018060405250810190610cb591906120ac565b50600c60003373ffffffffffffffffffffffffffffffffffffffff1673ffffffffffffffffffffffffffffffffffffffff16815260200190815260200160002060040160009054906101000a900460ff16610dc957600b339080600181540180825580915050600190039060005260206000200160009091909190916101000a81548173ffffffffffffffffffffffffffffffffffffffff021916908373ffffffffffffffffffffffffffffffffffffffff1602179055506001600c60003373ffffffffffffffffffffffffffffffffffffffff1673ffffffffffffffffffffffffffffffffffffffff16815260200190815260200160002060040160006101000a81548160ff0219169083151502179055505b80600c60003373ffffffffffffffffffffffffffffffffffffffff1673ffffffffffffffffffffffffffffffffffffffff1681526020019081526020016000206000016000828254610e1b919061213c565b925050819055508060046000828254610e34919061213c565b9250508190555050565b6000600c60003373ffffffffffffffffffffffffffffffffffffffff1673ffffffffffffffffffffffffffffffffffffffff1681526020019081526020016000206000015411610ec3576040517f08c379a0000000000000000000000000000000000000000000000000000000008152600401610eba90612578565b60405180910390fd5b600c60003373ffffffffffffffffffffffffffffffffffffffff1673ffffffffffffffffffffffffffffffffffffffff16815260200190815260200160002060000154821115610f48576040517f08c379a0000000000000000000000000000000000000000000000000000000008152600401610f3f9061240e565b60405180910390fd5b600c60003373ffffffffffffffffffffffffffffffffffffffff1673ffffffffffffffffffffffffffffffffffffffff16815260200190815260200160002060040160019054906101000a900460ff16610fd7576040517f08c379a0000000000000000000000000000000000000000000000000000000008152600401610fce906124a0565b60405180910390fd5b600c60003373ffffffffffffffffffffffffffffffffffffffff1673ffffffffffffffffffffffffffffffffffffffff16815260200190815260200160002060030154421161105b576040517f08c379a0000000000000000000000000000000000000000000000000000000008152600401611052906125e4565b60405180910390fd5b801561106b5761106a8261034b565b5b600160009054906101000a900473ffffffffffffffffffffffffffffffffffffffff1673ffffffffffffffffffffffffffffffffffffffff1663a9059cbb33846040518363ffffffff1660e01b81526004016110c8929190612604565b6020604051808303816000875af11580156110e7573d6000803e3d6000fd5b505050506040513d601f19601f8201168201806040525081019061110b91906120ac565b61111457600080fd5b81600c60003373ffffffffffffffffffffffffffffffffffffffff1673ffffffffffffffffffffffffffffffffffffffff16815260200190815260200160002060000160008282546111669190612108565b925050819055506000600c60003373ffffffffffffffffffffffffffffffffffffffff1673ffffffffffffffffffffffffffffffffffffffff16815260200190815260200160002060040160016101000a81548160ff0219169083151502179055505050565b60008060009054906101000a900473ffffffffffffffffffffffffffffffffffffffff16905090565b6111fd611940565b73ffffffffffffffffffffffffffffffffffffffff1661121b6111cc565b73ffffffffffffffffffffffffffffffffffffffff1614611271576040517f08c379a0000000000000000000000000000000000000000000000000000000008152600401611268906121de565b60405180910390fd5b600260149054906101000a900460ff166112c0576040517f08c379a00000000000000000000000000000000000000000000000000000000081526004016112b790612679565b60405180910390fd5b6000600260146101000a81548160ff021916908315150217905550565b6112e5611940565b73ffffffffffffffffffffffffffffffffffffffff166113036111cc565b73ffffffffffffffffffffffffffffffffffffffff1614611359576040517f08c379a0000000000000000000000000000000000000000000000000000000008152600401611350906121de565b60405180910390fd5b6000811161139c576040517f08c379a00000000000000000000000000000000000000000000000000000000081526004016113939061237c565b60405180910390fd5b600260009054906101000a900473ffffffffffffffffffffffffffffffffffffffff1673ffffffffffffffffffffffffffffffffffffffff166323b872dd3330846040518463ffffffff1660e01b81526004016113fb93929190612060565b6020604051808303816000875af115801561141a573d6000803e3d6000fd5b505050506040513d601f19601f8201168201806040525081019061143e91906120ac565b508060056000828254611451919061213c565b9250508190555050565b600360009054906101000a900473ffffffffffffffffffffffffffffffffffffffff1681565b60065481565b6000600954905090565b611499611940565b73ffffffffffffffffffffffffffffffffffffffff166114b76111cc565b73ffffffffffffffffffffffffffffffffffffffff161461150d576040517f08c379a0000000000000000000000000000000000000000000000000000000008152600401611504906121de565b60405180910390fd5b60008111611550576040517f08c379a00000000000000000000000000000000000000000000000000000000081526004016115479061237c565b60405180910390fd5b6007546005546115609190612108565b81106115a1576040517f08c379a00000000000000000000000000000000000000000000000000000000081526004016115989061270b565b60405180910390fd5b600260009054906101000a900473ffffffffffffffffffffffffffffffffffffffff1673ffffffffffffffffffffffffffffffffffffffff166323b872dd3033846040518463ffffffff1660e01b815260040161160093929190612060565b6020604051808303816000875af115801561161f573d6000803e3d6000fd5b505050506040513d601f19601f8201168201806040525081019061164391906120ac565b5080600560008282546116569190612108565b9250508190555050565b611668611940565b73ffffffffffffffffffffffffffffffffffffffff166116866111cc565b73ffffffffffffffffffffffffffffffffffffffff16146116dc576040517f08c379a00000000000000000000000000000000000000000000000000000000081526004016116d3906121de565b60405180910390fd5b80600160006101000a81548173ffffffffffffffffffffffffffffffffffffffff021916908373ffffffffffffffffffffffffffffffffffffffff16021790555050565b611728611940565b73ffffffffffffffffffffffffffffffffffffffff166117466111cc565b73ffffffffffffffffffffffffffffffffffffffff161461179c576040517f08c379a0000000000000000000000000000000000000000000000000000000008152600401611793906121de565b60405180910390fd5b600073ffffffffffffffffffffffffffffffffffffffff168173ffffffffffffffffffffffffffffffffffffffff16141561180c576040517f08c379a00000000000000000000000000000000000000000000000000000000081526004016118039061279d565b60405180910390fd5b61181581611b56565b50565b611820611940565b73ffffffffffffffffffffffffffffffffffffffff1661183e6111cc565b73ffffffffffffffffffffffffffffffffffffffff1614611894576040517f08c379a000000000000000000000000000000000000000000000000000000000815260040161188b906121de565b60405180910390fd5b600260149054906101000a900460ff16156118e4576040517f08c379a00000000000000000000000000000000000000000000000000000000081526004016118db90612310565b60405180910390fd5b6001600260146101000a81548160ff021916908315150217905550565b600b818154811061191157600080fd5b906000526020600020016000915054906101000a900473ffffffffffffffffffffffffffffffffffffffff1681565b600033905090565b600c60003373ffffffffffffffffffffffffffffffffffffffff1673ffffffffffffffffffffffffffffffffffffffff168152602001908152602001600020600001548111156119cd576040517f08c379a00000000000000000000000000000000000000000000000000000000081526004016119c49061240e565b60405180910390fd5b600c60003373ffffffffffffffffffffffffffffffffffffffff1673ffffffffffffffffffffffffffffffffffffffff16815260200190815260200160002060040160019054906101000a900460ff1615611a5d576040517f08c379a0000000000000000000000000000000000000000000000000000000008152600401611a54906124a0565b60405180910390fd5b80600c60003373ffffffffffffffffffffffffffffffffffffffff1673ffffffffffffffffffffffffffffffffffffffff168152602001908152602001600020600201819055506001600c60003373ffffffffffffffffffffffffffffffffffffffff1673ffffffffffffffffffffffffffffffffffffffff16815260200190815260200160002060040160016101000a81548160ff02191690831515021790555060085442611b0d919061213c565b600c60003373ffffffffffffffffffffffffffffffffffffffff1673ffffffffffffffffffffffffffffffffffffffff1681526020019081526020016000206003018190555050565b60008060009054906101000a900473ffffffffffffffffffffffffffffffffffffffff169050816000806101000a81548173ffffffffffffffffffffffffffffffffffffffff021916908373ffffffffffffffffffffffffffffffffffffffff1602179055508173ffffffffffffffffffffffffffffffffffffffff168173ffffffffffffffffffffffffffffffffffffffff167f8be0079c531659141344cd1fd0a4f28419497f9722a3daafe3b4186f6b6457e060405160405180910390a35050565b600080fd5b6000819050919050565b611c3281611c1f565b8114611c3d57600080fd5b50565b600081359050611c4f81611c29565b92915050565b600060208284031215611c6b57611c6a611c1a565b5b6000611c7984828501611c40565b91505092915050565b611c8b81611c1f565b82525050565b6000602082019050611ca66000830184611c82565b92915050565b60008115159050919050565b611cc181611cac565b8114611ccc57600080fd5b50565b600081359050611cde81611cb8565b92915050565b60008060408385031215611cfb57611cfa611c1a565b5b6000611d0985828601611c40565b9250506020611d1a85828601611ccf565b9150509250929050565b600073ffffffffffffffffffffffffffffffffffffffff82169050919050565b6000611d4f82611d24565b9050919050565b611d5f81611d44565b82525050565b6000602082019050611d7a6000830184611d56565b92915050565b6000819050919050565b6000611da5611da0611d9b84611d24565b611d80565b611d24565b9050919050565b6000611db782611d8a565b9050919050565b6000611dc982611dac565b9050919050565b611dd981611dbe565b82525050565b6000602082019050611df46000830184611dd0565b92915050565b611e0381611d44565b8114611e0e57600080fd5b50565b600081359050611e2081611dfa565b92915050565b600060208284031215611e3c57611e3b611c1a565b5b6000611e4a84828501611e11565b91505092915050565b600082825260208201905092915050565b7f55736572206d757374206265206d61726b65642061732061207374616b657200600082015250565b6000611e9a601f83611e53565b9150611ea582611e64565b602082019050919050565b60006020820190508181036000830152611ec981611e8d565b9050919050565b7f55736572206d75737420686176652070656e64696e6720726577617264730000600082015250565b6000611f06601e83611e53565b9150611f1182611ed0565b602082019050919050565b60006020820190508181036000830152611f3581611ef9565b9050919050565b7f43616e6e6f74207769746864726177206d6f7265207468616e2070656e64696e60008201527f6720726577617264730000000000000000000000000000000000000000000000602082015250565b6000611f98602983611e53565b9150611fa382611f3c565b604082019050919050565b60006020820190508181036000830152611fc781611f8b565b9050919050565b7f43616e6e6f74207769746864726177206d6f7265207468616e2074686520746f60008201527f74616c20726577617264732062616c616e636500000000000000000000000000602082015250565b600061202a603383611e53565b915061203582611fce565b604082019050919050565b600060208201905081810360008301526120598161201d565b9050919050565b60006060820190506120756000830186611d56565b6120826020830185611d56565b61208f6040830184611c82565b949350505050565b6000815190506120a681611cb8565b92915050565b6000602082840312156120c2576120c1611c1a565b5b60006120d084828501612097565b91505092915050565b7f4e487b7100000000000000000000000000000000000000000000000000000000600052601160045260246000fd5b600061211382611c1f565b915061211e83611c1f565b925082821015612131576121306120d9565b5b828203905092915050565b600061214782611c1f565b915061215283611c1f565b9250827fffffffffffffffffffffffffffffffffffffffffffffffffffffffffffffffff03821115612187576121866120d9565b5b828201905092915050565b7f4f776e61626c653a2063616c6c6572206973206e6f7420746865206f776e6572600082015250565b60006121c8602083611e53565b91506121d382612192565b602082019050919050565b600060208201905081810360008301526121f7816121bb565b9050919050565b7f43616e6e6f7420736574206e6567617469766520646179730000000000000000600082015250565b6000612234601883611e53565b915061223f826121fe565b602082019050919050565b6000602082019050818103600083015261226381612227565b9050919050565b600061227582611c1f565b915061228083611c1f565b9250817fffffffffffffffffffffffffffffffffffffffffffffffffffffffffffffffff04831182151516156122b9576122b86120d9565b5b828202905092915050565b7f5374616b696e672069732063757272656e746c79207061757365640000000000600082015250565b60006122fa601b83611e53565b9150612305826122c4565b602082019050919050565b60006020820190508181036000830152612329816122ed565b9050919050565b7f416d6f756e742063616e6e6f7420626520300000000000000000000000000000600082015250565b6000612366601283611e53565b915061237182612330565b602082019050919050565b6000602082019050818103600083015261239581612359565b9050919050565b7f43616e6e6f74207769746864726177206d6f7265207468616e2077686174206960008201527f73207374616b6564000000000000000000000000000000000000000000000000602082015250565b60006123f8602883611e53565b91506124038261239c565b604082019050919050565b60006020820190508181036000830152612427816123eb565b9050919050565b7f41207769746864726177616c20697320616c726561647920726571756573746560008201527f6400000000000000000000000000000000000000000000000000000000000000602082015250565b600061248a602183611e53565b91506124958261242e565b604082019050919050565b600060208201905081810360008301526124b98161247d565b9050919050565b7f43616e6e6f7420736574206e6567617469766520726577617264730000000000600082015250565b60006124f6601b83611e53565b9150612501826124c0565b602082019050919050565b60006020820190508181036000830152612525816124e9565b9050919050565b7f55736572206d7573742068617665207374616b656420746f6b656e7300000000600082015250565b6000612562601c83611e53565b915061256d8261252c565b602082019050919050565b6000602082019050818103600083015261259181612555565b9050919050565b7f596f752063616e6e6f7420776974686472617720796574000000000000000000600082015250565b60006125ce601783611e53565b91506125d982612598565b602082019050919050565b600060208201905081810360008301526125fd816125c1565b9050919050565b60006040820190506126196000830185611d56565b6126266020830184611c82565b9392505050565b7f5374616b696e672069732063757272656e746c7920756e706175736564000000600082015250565b6000612663601d83611e53565b915061266e8261262d565b602082019050919050565b6000602082019050818103600083015261269281612656565b9050919050565b7f43616e6e6f74206c65617665206c657373207468616e20796f7520686176652060008201527f746f207265776172640000000000000000000000000000000000000000000000602082015250565b60006126f5602983611e53565b915061270082612699565b604082019050919050565b60006020820190508181036000830152612724816126e8565b9050919050565b7f4f776e61626c653a206e6577206f776e657220697320746865207a65726f206160008201527f6464726573730000000000000000000000000000000000000000000000000000602082015250565b6000612787602683611e53565b91506127928261272b565b604082019050919050565b600060208201905081810360008301526127b68161277a565b905091905056fea2646970667358221220091be5aca164ed5fab26ce6da29f5a3779a22651aebe7f42b5b83dfd919c021f64736f6c634300080b0033",
  "immutableReferences": {},
  "source": "pragma solidity ^0.8.0;\r\n\r\nimport \"@openzeppelin/contracts/access/Ownable.sol\";\r\nimport \"@openzeppelin/contracts/utils/math/SafeMath.sol\";\r\nimport \"@openzeppelin/contracts/token/erc20/erc20.sol\";\r\n\r\ncontract Ring is ERC20 {\r\n    constructor() ERC20(\"OneRing\",\"RING\"){\r\n        _mint(msg.sender, 1000000000000);\r\n    }\r\n}\r\n\r\n\r\n\r\nstruct stakingInfo {\r\n        uint256 stakingBalance;  // total amount staked by user\r\n        uint256 stakingRewards; // total pending rewards of user\r\n        uint256 amountToWithdraw; // amount requested to withdraw\r\n        uint256 withdrawReleaseDate;  // release date of the requested withdraw\r\n        bool stakerMarked; // marks if staker was added in stakers array, to avoid adding twice\r\n        bool withdrawRequested; // marks if a withdrawal is ongoing\r\n    }\r\n\r\n\r\ncontract RingFarm is Ownable {\r\n    address allowedToken; // token address that is allowed to be staked\r\n    address rewardToken; // token address that is distributed in rewards\r\n    bool stakingPaused = true; // bool marking whether staking is paused or not\r\n    IERC20 public stakedToken;\r\n\r\n    uint256 totalStaked; // total amount of staked tokens\r\n    uint256 rewardsBalance; // total amount of reward tokens\r\n    uint256 public totalClaimed; // total amount of claimed rewards\r\n    uint256 totalPendingRewards; // total amount of rewards to be distributed\r\n    uint256 withdrawDuration = 2 weeks; // Amount of time to wait after requesting a withdrawal,\r\n    uint256 private rewardsPerDay; // rewards per day\r\n    uint256 public lastTimeStamp; // last timestamp on which rewards were updated\r\n    address[] public stakers; // array of stakers addresses used to iterate over map\r\n    // owner -> balance\r\n    mapping(address => stakingInfo) stakingDetails;  // map containing the details of each user (check the struct)\r\n\r\n    // addRewards\r\n    function addRewards(uint256 amount) public onlyOwner {\r\n        require(amount > 0, \"Amount cannot be 0\");\r\n        IERC20(rewardToken).transferFrom(msg.sender, address(this), amount);\r\n        rewardsBalance += amount;\r\n    }\r\n\r\n    // WithdrawRewards\r\n    function WithdrawRewards(uint256 amount) public onlyOwner {\r\n        require(amount > 0, \"Amount cannot be 0\");\r\n        require(amount < rewardsBalance - totalPendingRewards, \"Cannot leave less than you have to reward\");\r\n        IERC20(rewardToken).transferFrom(address(this), msg.sender, amount);\r\n        rewardsBalance -= amount;\r\n    }\r\n\r\n    // stakeTokens\r\n    function stakeTokens(uint256 amount) public{\r\n        //require(token is Ring)\r\n        require(!stakingPaused, \"Staking is currently paused\");\r\n        require(amount > 0, \"Amount cannot be 0\");\r\n        IERC20(allowedToken).transferFrom(msg.sender, address(this), amount);\r\n        //check if staker already in array\r\n        if(!stakingDetails[msg.sender].stakerMarked){\r\n            stakers.push(msg.sender);\r\n            stakingDetails[msg.sender].stakerMarked = true;\r\n        }\r\n        stakingDetails[msg.sender].stakingBalance += amount;\r\n        totalStaked += amount;\r\n    }\r\n\r\n    // withdraw or unstake Tokens\r\n    function withdrawTokens(uint256 amount) public{\r\n        //require(token is Ring)\r\n        require(!stakingPaused, \"Staking is currently paused\");\r\n        require(amount > 0, \"Amount cannot be 0\");\r\n        require(stakingDetails[msg.sender].stakingBalance > 0);\r\n        require(amount <= stakingDetails[msg.sender].stakingBalance, \"Cannot withdraw more than what is staked\");\r\n        require(!stakingDetails[msg.sender].withdrawRequested, \"A withdrawal is already requested\");\r\n        initWithdraw(amount);\r\n        IERC20(allowedToken).transferFrom(address(this), msg.sender, amount);\r\n        stakingDetails[msg.sender].stakingBalance  -= amount;\r\n        totalStaked -= amount;\r\n    }\r\n\r\n    function initWithdraw(uint256 amount) private{\r\n        require(amount <= stakingDetails[msg.sender].stakingBalance, \"Cannot withdraw more than what is staked\");\r\n        require(!stakingDetails[msg.sender].withdrawRequested, \"A withdrawal is already requested\");\r\n        stakingDetails[msg.sender].amountToWithdraw = amount;\r\n        stakingDetails[msg.sender].withdrawRequested = true;\r\n        stakingDetails[msg.sender].withdrawReleaseDate = block.timestamp + withdrawDuration;\r\n    }\r\n\r\n    function finalizeWithdraw(uint256 amount, bool andClaim) public{\r\n        require(stakingDetails[msg.sender].stakingBalance > 0, \"User must have staked tokens\");\r\n        require(amount <= stakingDetails[msg.sender].stakingBalance, \"Cannot withdraw more than what is staked\");\r\n        require(stakingDetails[msg.sender].withdrawRequested, \"A withdrawal is already requested\");\r\n        require(block.timestamp > stakingDetails[msg.sender].withdrawReleaseDate, \"You cannot withdraw yet\");\r\n        if(andClaim){\r\n            claimRewards(amount);\r\n        }\r\n        require(IERC20(allowedToken).transfer(msg.sender,amount));\r\n        stakingDetails[msg.sender].stakingBalance -= amount;\r\n        stakingDetails[msg.sender].withdrawRequested = false;\r\n    }\r\n\r\n\r\n    // get rewards per day\r\n    function getRewardsPerDay() public view returns (uint256){\r\n        return rewardsPerDay;\r\n    }\r\n\r\n    // set rewards per day\r\n    function setRewardsPerDay(uint256 rewards) public onlyOwner{\r\n        require(rewards >= 0, \"Cannot set negative rewards\");\r\n        rewardsPerDay = rewards;\r\n    }\r\n\r\n    // get rewards per day\r\n    function getWithdrawalDuration() public view returns (uint256){\r\n        return withdrawDuration;\r\n    }\r\n\r\n    // set rewards per day\r\n    function setWithdrawalDuration(uint256 timeToWaitInDays) public onlyOwner{\r\n        require(timeToWaitInDays > 0, \"Cannot set negative days\");\r\n        withdrawDuration = timeToWaitInDays * 24 * 60 * 60;\r\n    }\r\n\r\n    // calculate rewards\r\n    //TO DO: Call this function at every block\r\n    function calculateRewards() private {\r\n        address stakerAddress;\r\n        uint256 stakerShare;\r\n        for (uint i=0; i<stakers.length; i++) {\r\n            stakerAddress = stakers[i];\r\n            stakerShare = stakingDetails[stakerAddress].stakingBalance / totalStaked;\r\n            //staking rewards of each user is increased by the staker's share x rewards per day x seconds passed since last update divided by seconds per day.\r\n            stakingDetails[stakerAddress].stakingRewards += stakerShare * rewardsPerDay * (block.timestamp - lastTimeStamp)/86400;\r\n        }\r\n    }\r\n\r\n    // claim rewards\r\n    function claimRewards(uint256 amount) public {\r\n        require(stakingDetails[msg.sender].stakerMarked, \"User must be marked as a staker\"); // require that the caller is a staker\r\n        require(stakingDetails[msg.sender].stakingRewards > 0, \"User must have pending rewards\"); // require that the caller has rewards\r\n        require(amount <= stakingDetails[msg.sender].stakingRewards, \"Cannot withdraw more than pending rewards\");\r\n        require(amount <= rewardsBalance, \"Cannot withdraw more than the total rewards balance\");\r\n        IERC20(rewardToken).transferFrom(address(this), msg.sender, amount);\r\n        rewardsBalance -= amount;\r\n        totalPendingRewards -= amount;\r\n        totalClaimed += amount;\r\n    }\r\n\r\n    \r\n\r\n    // changeAllowedToken\r\n    function changeAllowedToken(address token) public onlyOwner {\r\n        allowedToken = token;\r\n    }\r\n\r\n    // pauseStaking\r\n    function pauseStaking() public onlyOwner {\r\n        require(!stakingPaused, \"Staking is currently paused\");\r\n        stakingPaused = true;\r\n    }\r\n\r\n    // unpauseStaking\r\n    function unpauseStaking() public onlyOwner {\r\n        require(stakingPaused, \"Staking is currently unpaused\");\r\n        stakingPaused = false;\r\n    }\r\n}",
  "sourcePath": "C:\\Users\\FH\\Documents\\OneRing\\onering-staking-evm\\contracts\\RingStaking.sol",
  "compiler": {
    "name": "solc",
    "version": "0.8.11+commit.d7f03943.Emscripten.clang"
  },
  "schemaVersion": "3.4.4",
  "updatedAt": "2022-04-18T16:38:17.033Z",
  "devdoc": {
    "kind": "dev",
    "methods": {
      "owner()": {
        "details": "Returns the address of the current owner."
      },
      "renounceOwnership()": {
        "details": "Leaves the contract without owner. It will not be possible to call `onlyOwner` functions anymore. Can only be called by the current owner. NOTE: Renouncing ownership will leave the contract without an owner, thereby removing any functionality that is only available to the owner."
      },
      "transferOwnership(address)": {
        "details": "Transfers ownership of the contract to a new account (`newOwner`). Can only be called by the current owner."
      }
    },
    "version": 1
  },
  "userdoc": {
    "kind": "user",
    "methods": {},
    "version": 1
  }
}