{
  "contractName": "RingFarm",
  "abi": [
    {
      "inputs": [
        {
          "internalType": "address",
          "name": "_dappTokenAddress",
          "type": "address"
        }
      ],
      "stateMutability": "nonpayable",
      "type": "constructor"
    },
    {
      "anonymous": false,
      "inputs": [
        {
          "indexed": true,
          "internalType": "address",
          "name": "previousOwner",
          "type": "address"
        },
        {
          "indexed": true,
          "internalType": "address",
          "name": "newOwner",
          "type": "address"
        }
      ],
      "name": "OwnershipTransferred",
      "type": "event"
    },
    {
      "inputs": [],
      "name": "lastTimeStamp",
      "outputs": [
        {
          "internalType": "uint256",
          "name": "",
          "type": "uint256"
        }
      ],
      "stateMutability": "view",
      "type": "function"
    },
    {
      "inputs": [],
      "name": "owner",
      "outputs": [
        {
          "internalType": "address",
          "name": "",
          "type": "address"
        }
      ],
      "stateMutability": "view",
      "type": "function"
    },
    {
      "inputs": [],
      "name": "renounceOwnership",
      "outputs": [],
      "stateMutability": "nonpayable",
      "type": "function"
    },
    {
      "inputs": [],
      "name": "stakedToken",
      "outputs": [
        {
          "internalType": "contract IERC20",
          "name": "",
          "type": "address"
        }
      ],
      "stateMutability": "view",
      "type": "function"
    },
    {
      "inputs": [
        {
          "internalType": "uint256",
          "name": "",
          "type": "uint256"
        }
      ],
      "name": "stakers",
      "outputs": [
        {
          "internalType": "address",
          "name": "",
          "type": "address"
        }
      ],
      "stateMutability": "view",
      "type": "function"
    },
    {
      "inputs": [],
      "name": "totalClaimed",
      "outputs": [
        {
          "internalType": "uint256",
          "name": "",
          "type": "uint256"
        }
      ],
      "stateMutability": "view",
      "type": "function"
    },
    {
      "inputs": [
        {
          "internalType": "address",
          "name": "newOwner",
          "type": "address"
        }
      ],
      "name": "transferOwnership",
      "outputs": [],
      "stateMutability": "nonpayable",
      "type": "function"
    },
    {
      "inputs": [
        {
          "internalType": "uint256",
          "name": "amount",
          "type": "uint256"
        }
      ],
      "name": "addRewards",
      "outputs": [],
      "stateMutability": "nonpayable",
      "type": "function"
    },
    {
      "inputs": [
        {
          "internalType": "uint256",
          "name": "amount",
          "type": "uint256"
        }
      ],
      "name": "WithdrawRewards",
      "outputs": [],
      "stateMutability": "nonpayable",
      "type": "function"
    },
    {
      "inputs": [
        {
          "internalType": "uint256",
          "name": "amount",
          "type": "uint256"
        }
      ],
      "name": "stakeTokens",
      "outputs": [],
      "stateMutability": "nonpayable",
      "type": "function"
    },
    {
      "inputs": [
        {
          "internalType": "uint256",
          "name": "amount",
          "type": "uint256"
        }
      ],
      "name": "withdrawTokens",
      "outputs": [],
      "stateMutability": "nonpayable",
      "type": "function"
    },
    {
      "inputs": [
        {
          "internalType": "uint256",
          "name": "amount",
          "type": "uint256"
        },
        {
          "internalType": "bool",
          "name": "andClaim",
          "type": "bool"
        }
      ],
      "name": "finalizeWithdraw",
      "outputs": [],
      "stateMutability": "nonpayable",
      "type": "function"
    },
    {
      "inputs": [],
      "name": "getRewardsPerDay",
      "outputs": [
        {
          "internalType": "uint256",
          "name": "",
          "type": "uint256"
        }
      ],
      "stateMutability": "view",
      "type": "function"
    },
    {
      "inputs": [
        {
          "internalType": "uint256",
          "name": "rewards",
          "type": "uint256"
        }
      ],
      "name": "setRewardsPerDay",
      "outputs": [],
      "stateMutability": "nonpayable",
      "type": "function"
    },
    {
      "inputs": [],
      "name": "getWithdrawalDuration",
      "outputs": [
        {
          "internalType": "uint256",
          "name": "",
          "type": "uint256"
        }
      ],
      "stateMutability": "view",
      "type": "function"
    },
    {
      "inputs": [
        {
          "internalType": "uint256",
          "name": "timeToWaitInDays",
          "type": "uint256"
        }
      ],
      "name": "setWithdrawalDuration",
      "outputs": [],
      "stateMutability": "nonpayable",
      "type": "function"
    },
    {
      "inputs": [
        {
          "internalType": "uint256",
          "name": "amount",
          "type": "uint256"
        }
      ],
      "name": "claimRewards",
      "outputs": [],
      "stateMutability": "nonpayable",
      "type": "function"
    },
    {
      "inputs": [
        {
          "internalType": "address",
          "name": "token",
          "type": "address"
        }
      ],
      "name": "changeAllowedToken",
      "outputs": [],
      "stateMutability": "nonpayable",
      "type": "function"
    },
    {
      "inputs": [],
      "name": "pauseStaking",
      "outputs": [],
      "stateMutability": "nonpayable",
      "type": "function"
    },
    {
      "inputs": [],
      "name": "unpauseStaking",
      "outputs": [],
      "stateMutability": "nonpayable",
      "type": "function"
    }
  ],
  "bytecode": "0x60806040526001600260146101000a81548160ff0219169083151502179055503480156200002c57600080fd5b50604051620024d3380380620024d38339818101604052810190620000529190620001f0565b6200007262000066620000ba60201b60201c565b620000c260201b60201c565b80600360006101000a81548173ffffffffffffffffffffffffffffffffffffffff021916908373ffffffffffffffffffffffffffffffffffffffff1602179055505062000222565b600033905090565b60008060009054906101000a900473ffffffffffffffffffffffffffffffffffffffff169050816000806101000a81548173ffffffffffffffffffffffffffffffffffffffff021916908373ffffffffffffffffffffffffffffffffffffffff1602179055508173ffffffffffffffffffffffffffffffffffffffff168173ffffffffffffffffffffffffffffffffffffffff167f8be0079c531659141344cd1fd0a4f28419497f9722a3daafe3b4186f6b6457e060405160405180910390a35050565b600080fd5b600073ffffffffffffffffffffffffffffffffffffffff82169050919050565b6000620001b8826200018b565b9050919050565b620001ca81620001ab565b8114620001d657600080fd5b50565b600081519050620001ea81620001bf565b92915050565b60006020828403121562000209576200020862000186565b5b60006200021984828501620001d9565b91505092915050565b6122a180620002326000396000f3fe608060405234801561001057600080fd5b506004361061012c5760003560e01c806393f4bcde116100ad578063e6c3e97b11610071578063e6c3e97b146102bd578063f2eba834146102d9578063f2fde38b146102f5578063f999c50614610311578063fd5e6dd11461031b5761012c565b806393f4bcde1461023d578063beceed3914610247578063cc7a262e14610263578063d54ad2a114610281578063e4bd248e1461029f5761012c565b80633f3b3b27116100f45780633f3b3b27146101bf578063715018a6146101dd5780637547c7a3146101e75780637a6b1d37146102035780638da5cb5b1461021f5761012c565b80630962ef791461013157806329f384e21461014d5780632f83985114610169578063315a095d146101875780633cc2757b146101a3575b600080fd5b61014b60048036038101906101469190611a9d565b61034b565b005b61016760048036038101906101629190611a9d565b610533565b005b6101716105b9565b60405161017e9190611ad9565b60405180910390f35b6101a1600480360381019061019c9190611a9d565b6105c3565b005b6101bd60048036038101906101b89190611a9d565b6108db565b005b6101c761096f565b6040516101d49190611ad9565b60405180910390f35b6101e5610975565b005b61020160048036038101906101fc9190611a9d565b6109fd565b005b61021d60048036038101906102189190611b2c565b610cbb565b005b610227611013565b6040516102349190611bad565b60405180910390f35b61024561103c565b005b610261600480360381019061025c9190611a9d565b611124565b005b61026b6112a2565b6040516102789190611c27565b60405180910390f35b6102896112c8565b6040516102969190611ad9565b60405180910390f35b6102a76112ce565b6040516102b49190611ad9565b60405180910390f35b6102d760048036038101906102d29190611a9d565b6112d8565b005b6102f360048036038101906102ee9190611c6e565b6114a7565b005b61030f600480360381019061030a9190611c6e565b611567565b005b61031961165f565b005b61033560048036038101906103309190611a9d565b611748565b6040516103429190611bad565b60405180910390f35b600c60003373ffffffffffffffffffffffffffffffffffffffff1673ffffffffffffffffffffffffffffffffffffffff16815260200190815260200160002060040160009054906101000a900460ff166103a457600080fd5b6000600c60003373ffffffffffffffffffffffffffffffffffffffff1673ffffffffffffffffffffffffffffffffffffffff16815260200190815260200160002060010154116103f357600080fd5b600c60003373ffffffffffffffffffffffffffffffffffffffff1673ffffffffffffffffffffffffffffffffffffffff1681526020019081526020016000206001015481111561044257600080fd5b600260009054906101000a900473ffffffffffffffffffffffffffffffffffffffff1673ffffffffffffffffffffffffffffffffffffffff166323b872dd3033846040518463ffffffff1660e01b81526004016104a193929190611c9b565b6020604051808303816000875af11580156104c0573d6000803e3d6000fd5b505050506040513d601f19601f820116820180604052508101906104e49190611ce7565b5080600560008282546104f79190611d43565b9250508190555080600760008282546105109190611d43565b9250508190555080600660008282546105299190611d77565b9250508190555050565b61053b611787565b73ffffffffffffffffffffffffffffffffffffffff16610559611013565b73ffffffffffffffffffffffffffffffffffffffff16146105af576040517f08c379a00000000000000000000000000000000000000000000000000000000081526004016105a690611e2a565b60405180910390fd5b8060088190555050565b6000600854905090565b600260149054906101000a900460ff1615610613576040517f08c379a000000000000000000000000000000000000000000000000000000000815260040161060a90611e96565b60405180910390fd5b60008111610656576040517f08c379a000000000000000000000000000000000000000000000000000000000815260040161064d90611f02565b60405180910390fd5b6000600c60003373ffffffffffffffffffffffffffffffffffffffff1673ffffffffffffffffffffffffffffffffffffffff16815260200190815260200160002060000154116106a557600080fd5b600c60003373ffffffffffffffffffffffffffffffffffffffff1673ffffffffffffffffffffffffffffffffffffffff1681526020019081526020016000206000015481111561072a576040517f08c379a000000000000000000000000000000000000000000000000000000000815260040161072190611f94565b60405180910390fd5b600c60003373ffffffffffffffffffffffffffffffffffffffff1673ffffffffffffffffffffffffffffffffffffffff16815260200190815260200160002060040160019054906101000a900460ff16156107ba576040517f08c379a00000000000000000000000000000000000000000000000000000000081526004016107b190612026565b60405180910390fd5b6107c38161178f565b600160009054906101000a900473ffffffffffffffffffffffffffffffffffffffff1673ffffffffffffffffffffffffffffffffffffffff166323b872dd3033846040518463ffffffff1660e01b815260040161082293929190611c9b565b6020604051808303816000875af1158015610841573d6000803e3d6000fd5b505050506040513d601f19601f820116820180604052508101906108659190611ce7565b5080600c60003373ffffffffffffffffffffffffffffffffffffffff1673ffffffffffffffffffffffffffffffffffffffff16815260200190815260200160002060000160008282546108b89190611d43565b9250508190555080600460008282546108d19190611d43565b9250508190555050565b6108e3611787565b73ffffffffffffffffffffffffffffffffffffffff16610901611013565b73ffffffffffffffffffffffffffffffffffffffff1614610957576040517f08c379a000000000000000000000000000000000000000000000000000000000815260040161094e90611e2a565b60405180910390fd5b600081101561096557600080fd5b8060098190555050565b600a5481565b61097d611787565b73ffffffffffffffffffffffffffffffffffffffff1661099b611013565b73ffffffffffffffffffffffffffffffffffffffff16146109f1576040517f08c379a00000000000000000000000000000000000000000000000000000000081526004016109e890611e2a565b60405180910390fd5b6109fb600061199e565b565b600260149054906101000a900460ff1615610a4d576040517f08c379a0000000000000000000000000000000000000000000000000000000008152600401610a4490611e96565b60405180910390fd5b60008111610a90576040517f08c379a0000000000000000000000000000000000000000000000000000000008152600401610a8790611f02565b60405180910390fd5b600160009054906101000a900473ffffffffffffffffffffffffffffffffffffffff1673ffffffffffffffffffffffffffffffffffffffff166323b872dd3330846040518463ffffffff1660e01b8152600401610aef93929190611c9b565b6020604051808303816000875af1158015610b0e573d6000803e3d6000fd5b505050506040513d601f19601f82011682018060405250810190610b329190611ce7565b50600c60003373ffffffffffffffffffffffffffffffffffffffff1673ffffffffffffffffffffffffffffffffffffffff16815260200190815260200160002060040160009054906101000a900460ff16610c4657600b339080600181540180825580915050600190039060005260206000200160009091909190916101000a81548173ffffffffffffffffffffffffffffffffffffffff021916908373ffffffffffffffffffffffffffffffffffffffff1602179055506001600c60003373ffffffffffffffffffffffffffffffffffffffff1673ffffffffffffffffffffffffffffffffffffffff16815260200190815260200160002060040160006101000a81548160ff0219169083151502179055505b80600c60003373ffffffffffffffffffffffffffffffffffffffff1673ffffffffffffffffffffffffffffffffffffffff1681526020019081526020016000206000016000828254610c989190611d77565b925050819055508060046000828254610cb19190611d77565b9250508190555050565b6000600c60003373ffffffffffffffffffffffffffffffffffffffff1673ffffffffffffffffffffffffffffffffffffffff1681526020019081526020016000206000015411610d0a57600080fd5b600c60003373ffffffffffffffffffffffffffffffffffffffff1673ffffffffffffffffffffffffffffffffffffffff16815260200190815260200160002060000154821115610d8f576040517f08c379a0000000000000000000000000000000000000000000000000000000008152600401610d8690611f94565b60405180910390fd5b600c60003373ffffffffffffffffffffffffffffffffffffffff1673ffffffffffffffffffffffffffffffffffffffff16815260200190815260200160002060040160019054906101000a900460ff16610e1e576040517f08c379a0000000000000000000000000000000000000000000000000000000008152600401610e1590612026565b60405180910390fd5b600c60003373ffffffffffffffffffffffffffffffffffffffff1673ffffffffffffffffffffffffffffffffffffffff168152602001908152602001600020600301544211610ea2576040517f08c379a0000000000000000000000000000000000000000000000000000000008152600401610e9990612092565b60405180910390fd5b8015610eb257610eb18261034b565b5b600160009054906101000a900473ffffffffffffffffffffffffffffffffffffffff1673ffffffffffffffffffffffffffffffffffffffff1663a9059cbb33846040518363ffffffff1660e01b8152600401610f0f9291906120b2565b6020604051808303816000875af1158015610f2e573d6000803e3d6000fd5b505050506040513d601f19601f82011682018060405250810190610f529190611ce7565b610f5b57600080fd5b81600c60003373ffffffffffffffffffffffffffffffffffffffff1673ffffffffffffffffffffffffffffffffffffffff1681526020019081526020016000206000016000828254610fad9190611d43565b925050819055506000600c60003373ffffffffffffffffffffffffffffffffffffffff1673ffffffffffffffffffffffffffffffffffffffff16815260200190815260200160002060040160016101000a81548160ff0219169083151502179055505050565b60008060009054906101000a900473ffffffffffffffffffffffffffffffffffffffff16905090565b611044611787565b73ffffffffffffffffffffffffffffffffffffffff16611062611013565b73ffffffffffffffffffffffffffffffffffffffff16146110b8576040517f08c379a00000000000000000000000000000000000000000000000000000000081526004016110af90611e2a565b60405180910390fd5b600260149054906101000a900460ff16611107576040517f08c379a00000000000000000000000000000000000000000000000000000000081526004016110fe90612127565b60405180910390fd5b6000600260146101000a81548160ff021916908315150217905550565b61112c611787565b73ffffffffffffffffffffffffffffffffffffffff1661114a611013565b73ffffffffffffffffffffffffffffffffffffffff16146111a0576040517f08c379a000000000000000000000000000000000000000000000000000000000815260040161119790611e2a565b60405180910390fd5b600081116111e3576040517f08c379a00000000000000000000000000000000000000000000000000000000081526004016111da90611f02565b60405180910390fd5b600260009054906101000a900473ffffffffffffffffffffffffffffffffffffffff1673ffffffffffffffffffffffffffffffffffffffff166323b872dd3330846040518463ffffffff1660e01b815260040161124293929190611c9b565b6020604051808303816000875af1158015611261573d6000803e3d6000fd5b505050506040513d601f19601f820116820180604052508101906112859190611ce7565b5080600560008282546112989190611d77565b9250508190555050565b600360009054906101000a900473ffffffffffffffffffffffffffffffffffffffff1681565b60065481565b6000600954905090565b6112e0611787565b73ffffffffffffffffffffffffffffffffffffffff166112fe611013565b73ffffffffffffffffffffffffffffffffffffffff1614611354576040517f08c379a000000000000000000000000000000000000000000000000000000000815260040161134b90611e2a565b60405180910390fd5b60008111611397576040517f08c379a000000000000000000000000000000000000000000000000000000000815260040161138e90611f02565b60405180910390fd5b6007546005546113a79190611d43565b81106113e8576040517f08c379a00000000000000000000000000000000000000000000000000000000081526004016113df906121b9565b60405180910390fd5b600260009054906101000a900473ffffffffffffffffffffffffffffffffffffffff1673ffffffffffffffffffffffffffffffffffffffff166323b872dd3033846040518463ffffffff1660e01b815260040161144793929190611c9b565b6020604051808303816000875af1158015611466573d6000803e3d6000fd5b505050506040513d601f19601f8201168201806040525081019061148a9190611ce7565b50806005600082825461149d9190611d43565b9250508190555050565b6114af611787565b73ffffffffffffffffffffffffffffffffffffffff166114cd611013565b73ffffffffffffffffffffffffffffffffffffffff1614611523576040517f08c379a000000000000000000000000000000000000000000000000000000000815260040161151a90611e2a565b60405180910390fd5b80600160006101000a81548173ffffffffffffffffffffffffffffffffffffffff021916908373ffffffffffffffffffffffffffffffffffffffff16021790555050565b61156f611787565b73ffffffffffffffffffffffffffffffffffffffff1661158d611013565b73ffffffffffffffffffffffffffffffffffffffff16146115e3576040517f08c379a00000000000000000000000000000000000000000000000000000000081526004016115da90611e2a565b60405180910390fd5b600073ffffffffffffffffffffffffffffffffffffffff168173ffffffffffffffffffffffffffffffffffffffff161415611653576040517f08c379a000000000000000000000000000000000000000000000000000000000815260040161164a9061224b565b60405180910390fd5b61165c8161199e565b50565b611667611787565b73ffffffffffffffffffffffffffffffffffffffff16611685611013565b73ffffffffffffffffffffffffffffffffffffffff16146116db576040517f08c379a00000000000000000000000000000000000000000000000000000000081526004016116d290611e2a565b60405180910390fd5b600260149054906101000a900460ff161561172b576040517f08c379a000000000000000000000000000000000000000000000000000000000815260040161172290611e96565b60405180910390fd5b6001600260146101000a81548160ff021916908315150217905550565b600b818154811061175857600080fd5b906000526020600020016000915054906101000a900473ffffffffffffffffffffffffffffffffffffffff1681565b600033905090565b600c60003373ffffffffffffffffffffffffffffffffffffffff1673ffffffffffffffffffffffffffffffffffffffff16815260200190815260200160002060000154811115611814576040517f08c379a000000000000000000000000000000000000000000000000000000000815260040161180b90611f94565b60405180910390fd5b600c60003373ffffffffffffffffffffffffffffffffffffffff1673ffffffffffffffffffffffffffffffffffffffff16815260200190815260200160002060040160019054906101000a900460ff16156118a4576040517f08c379a000000000000000000000000000000000000000000000000000000000815260040161189b90612026565b60405180910390fd5b80600c60003373ffffffffffffffffffffffffffffffffffffffff1673ffffffffffffffffffffffffffffffffffffffff168152602001908152602001600020600201819055506001600c60003373ffffffffffffffffffffffffffffffffffffffff1673ffffffffffffffffffffffffffffffffffffffff16815260200190815260200160002060040160016101000a81548160ff02191690831515021790555062127500426119559190611d77565b600c60003373ffffffffffffffffffffffffffffffffffffffff1673ffffffffffffffffffffffffffffffffffffffff1681526020019081526020016000206003018190555050565b60008060009054906101000a900473ffffffffffffffffffffffffffffffffffffffff169050816000806101000a81548173ffffffffffffffffffffffffffffffffffffffff021916908373ffffffffffffffffffffffffffffffffffffffff1602179055508173ffffffffffffffffffffffffffffffffffffffff168173ffffffffffffffffffffffffffffffffffffffff167f8be0079c531659141344cd1fd0a4f28419497f9722a3daafe3b4186f6b6457e060405160405180910390a35050565b600080fd5b6000819050919050565b611a7a81611a67565b8114611a8557600080fd5b50565b600081359050611a9781611a71565b92915050565b600060208284031215611ab357611ab2611a62565b5b6000611ac184828501611a88565b91505092915050565b611ad381611a67565b82525050565b6000602082019050611aee6000830184611aca565b92915050565b60008115159050919050565b611b0981611af4565b8114611b1457600080fd5b50565b600081359050611b2681611b00565b92915050565b60008060408385031215611b4357611b42611a62565b5b6000611b5185828601611a88565b9250506020611b6285828601611b17565b9150509250929050565b600073ffffffffffffffffffffffffffffffffffffffff82169050919050565b6000611b9782611b6c565b9050919050565b611ba781611b8c565b82525050565b6000602082019050611bc26000830184611b9e565b92915050565b6000819050919050565b6000611bed611be8611be384611b6c565b611bc8565b611b6c565b9050919050565b6000611bff82611bd2565b9050919050565b6000611c1182611bf4565b9050919050565b611c2181611c06565b82525050565b6000602082019050611c3c6000830184611c18565b92915050565b611c4b81611b8c565b8114611c5657600080fd5b50565b600081359050611c6881611c42565b92915050565b600060208284031215611c8457611c83611a62565b5b6000611c9284828501611c59565b91505092915050565b6000606082019050611cb06000830186611b9e565b611cbd6020830185611b9e565b611cca6040830184611aca565b949350505050565b600081519050611ce181611b00565b92915050565b600060208284031215611cfd57611cfc611a62565b5b6000611d0b84828501611cd2565b91505092915050565b7f4e487b7100000000000000000000000000000000000000000000000000000000600052601160045260246000fd5b6000611d4e82611a67565b9150611d5983611a67565b925082821015611d6c57611d6b611d14565b5b828203905092915050565b6000611d8282611a67565b9150611d8d83611a67565b9250827fffffffffffffffffffffffffffffffffffffffffffffffffffffffffffffffff03821115611dc257611dc1611d14565b5b828201905092915050565b600082825260208201905092915050565b7f4f776e61626c653a2063616c6c6572206973206e6f7420746865206f776e6572600082015250565b6000611e14602083611dcd565b9150611e1f82611dde565b602082019050919050565b60006020820190508181036000830152611e4381611e07565b9050919050565b7f5374616b696e672069732063757272656e746c79207061757365640000000000600082015250565b6000611e80601b83611dcd565b9150611e8b82611e4a565b602082019050919050565b60006020820190508181036000830152611eaf81611e73565b9050919050565b7f416d6f756e742063616e6e6f7420626520300000000000000000000000000000600082015250565b6000611eec601283611dcd565b9150611ef782611eb6565b602082019050919050565b60006020820190508181036000830152611f1b81611edf565b9050919050565b7f43616e6e6f74207769746864726177206d6f7265207468616e2077686174206960008201527f73207374616b6564000000000000000000000000000000000000000000000000602082015250565b6000611f7e602883611dcd565b9150611f8982611f22565b604082019050919050565b60006020820190508181036000830152611fad81611f71565b9050919050565b7f41207769746864726177616c20697320616c726561647920726571756573746560008201527f6400000000000000000000000000000000000000000000000000000000000000602082015250565b6000612010602183611dcd565b915061201b82611fb4565b604082019050919050565b6000602082019050818103600083015261203f81612003565b9050919050565b7f596f752063616e6e6f7420776974686472617720796574000000000000000000600082015250565b600061207c601783611dcd565b915061208782612046565b602082019050919050565b600060208201905081810360008301526120ab8161206f565b9050919050565b60006040820190506120c76000830185611b9e565b6120d46020830184611aca565b9392505050565b7f5374616b696e672069732063757272656e746c7920756e706175736564000000600082015250565b6000612111601d83611dcd565b915061211c826120db565b602082019050919050565b6000602082019050818103600083015261214081612104565b9050919050565b7f43616e6e6f74206c65617665206c657373207468616e20796f7520686176652060008201527f746f207265776172640000000000000000000000000000000000000000000000602082015250565b60006121a3602983611dcd565b91506121ae82612147565b604082019050919050565b600060208201905081810360008301526121d281612196565b9050919050565b7f4f776e61626c653a206e6577206f776e657220697320746865207a65726f206160008201527f6464726573730000000000000000000000000000000000000000000000000000602082015250565b6000612235602683611dcd565b9150612240826121d9565b604082019050919050565b6000602082019050818103600083015261226481612228565b905091905056fea2646970667358221220bd1b9309e7e248ec65e590ecf667e6be9f0632076a374502ac6496e9cb373bf464736f6c634300080b0033",
  "immutableReferences": {},
  "source": "pragma solidity ^0.8.0;\r\n\r\nimport \"@openzeppelin/contracts/access/Ownable.sol\";\r\nimport \"@openzeppelin/contracts/utils/math/SafeMath.sol\";\r\nimport \"@openzeppelin/contracts/token/erc20/erc20.sol\";\r\n\r\ncontract Ring is ERC20 {\r\n    constructor() ERC20(\"OneRing\",\"RING\"){\r\n        _mint(msg.sender, 1000000000000);\r\n    }\r\n}\r\n\r\n\r\n\r\nstruct stakingInfo {\r\n        uint256 stakingBalance;  // total amount staked by user\r\n        uint256 stakingRewards; // total pending rewards of user\r\n        uint256 amountToWithdraw; // amount requested to withdraw\r\n        uint256 withdrawReleaseDate;  // release date of the requested withdraw\r\n        bool stakerMarked; // marks if staker was added in stakers array, to avoid adding twice\r\n        bool withdrawRequested; // marks if a withdrawal is ongoing\r\n    }\r\n\r\n\r\ncontract RingFarm is Ownable {\r\n    address allowedToken; // token address that is allowed to be staked\r\n    address rewardToken; // token address that is distributed in rewards\r\n    bool stakingPaused = true; // bool marking whether staking is paused or not\r\n    IERC20 public stakedToken;\r\n\r\n    uint256 totalStaked; // total amount of staked tokens\r\n    uint256 rewardsBalance; // total amount of reward tokens\r\n    uint256 public totalClaimed; // total amount of claimed rewards\r\n    uint256 totalPendingRewards; // total amount of rewards to be distributed\r\n    uint256 withdrawDuration; // Amount of time to wait after requesting a withdrawal,\r\n    uint256 private rewardsPerDay; // rewards per day\r\n    uint256 public lastTimeStamp; // last timestamp on which rewards were updated\r\n    address[] public stakers; // array of stakers addresses used to iterate over map\r\n    // owner -> balance\r\n    mapping(address => stakingInfo) stakingDetails;  // map containing the details of each user (check the struct)\r\n\r\n\r\n    constructor(address _dappTokenAddress) public { \r\n        stakedToken = IERC20(_dappTokenAddress);\r\n    }\r\n\r\n    // addRewards\r\n    function addRewards(uint256 amount) public onlyOwner {\r\n        require(amount > 0, \"Amount cannot be 0\");\r\n        IERC20(rewardToken).transferFrom(msg.sender, address(this), amount);\r\n        rewardsBalance += amount;\r\n    }\r\n\r\n    // WithdrawRewards\r\n    function WithdrawRewards(uint256 amount) public onlyOwner {\r\n        require(amount > 0, \"Amount cannot be 0\");\r\n        require(amount < rewardsBalance - totalPendingRewards, \"Cannot leave less than you have to reward\");\r\n        IERC20(rewardToken).transferFrom(address(this), msg.sender, amount);\r\n        rewardsBalance -= amount;\r\n    }\r\n\r\n    // stakeTokens\r\n    function stakeTokens(uint256 amount) public{\r\n        //require(token is Ring)\r\n        require(!stakingPaused, \"Staking is currently paused\");\r\n        require(amount > 0, \"Amount cannot be 0\");\r\n        IERC20(allowedToken).transferFrom(msg.sender, address(this), amount);\r\n        //check if staker already in array\r\n        if(!stakingDetails[msg.sender].stakerMarked){\r\n            stakers.push(msg.sender);\r\n            stakingDetails[msg.sender].stakerMarked = true;\r\n        }\r\n        stakingDetails[msg.sender].stakingBalance += amount;\r\n        totalStaked += amount;\r\n    }\r\n\r\n    // withdraw or unstake Tokens\r\n    function withdrawTokens(uint256 amount) public{\r\n        //require(token is Ring)\r\n        require(!stakingPaused, \"Staking is currently paused\");\r\n        require(amount > 0, \"Amount cannot be 0\");\r\n        require(stakingDetails[msg.sender].stakingBalance > 0);\r\n        require(amount <= stakingDetails[msg.sender].stakingBalance, \"Cannot withdraw more than what is staked\");\r\n        require(!stakingDetails[msg.sender].withdrawRequested, \"A withdrawal is already requested\");\r\n        initWithdraw(amount);\r\n        IERC20(allowedToken).transferFrom(address(this), msg.sender, amount);\r\n        stakingDetails[msg.sender].stakingBalance  -= amount;\r\n        totalStaked -= amount;\r\n    }\r\n\r\n    function initWithdraw(uint256 amount) private{\r\n        require(amount <= stakingDetails[msg.sender].stakingBalance, \"Cannot withdraw more than what is staked\");\r\n        require(!stakingDetails[msg.sender].withdrawRequested, \"A withdrawal is already requested\");\r\n        stakingDetails[msg.sender].amountToWithdraw = amount;\r\n        stakingDetails[msg.sender].withdrawRequested = true;\r\n        stakingDetails[msg.sender].withdrawReleaseDate = block.timestamp + 2 weeks;\r\n    }\r\n\r\n    function finalizeWithdraw(uint256 amount, bool andClaim) public{\r\n        require(stakingDetails[msg.sender].stakingBalance > 0);\r\n        require(amount <= stakingDetails[msg.sender].stakingBalance, \"Cannot withdraw more than what is staked\");\r\n        require(stakingDetails[msg.sender].withdrawRequested, \"A withdrawal is already requested\");\r\n        require(block.timestamp > stakingDetails[msg.sender].withdrawReleaseDate, \"You cannot withdraw yet\");\r\n        if(andClaim){\r\n            claimRewards(amount);\r\n        }\r\n        require(IERC20(allowedToken).transfer(msg.sender,amount));\r\n        stakingDetails[msg.sender].stakingBalance -= amount;\r\n        stakingDetails[msg.sender].withdrawRequested = false;\r\n    }\r\n\r\n\r\n    // get rewards per day\r\n    function getRewardsPerDay() public view returns (uint256){\r\n        return rewardsPerDay;\r\n    }\r\n\r\n    // set rewards per day\r\n    function setRewardsPerDay(uint256 rewards) public onlyOwner{\r\n        require(rewards >= 0);\r\n        rewardsPerDay = rewards;\r\n    }\r\n\r\n    // get rewards per day\r\n    function getWithdrawalDuration() public view returns (uint256){\r\n        return withdrawDuration;\r\n    }\r\n\r\n    // set rewards per day\r\n    function setWithdrawalDuration(uint256 timeToWaitInDays) public onlyOwner{\r\n        withdrawDuration = timeToWaitInDays ;\r\n    }\r\n\r\n    // calculate rewards\r\n    //TO DO: Call this function at every block\r\n    function calculateRewards() private {\r\n        address stakerAddress;\r\n        uint256 stakerShare;\r\n        for (uint i=0; i<stakers.length; i++) {\r\n            stakerAddress = stakers[i];\r\n            stakerShare = stakingDetails[stakerAddress].stakingBalance / totalStaked;\r\n            //staking rewards of each user is increased by the staker's share x rewards per day x seconds passed since last update divided by seconds per day.\r\n            stakingDetails[stakerAddress].stakingRewards += stakerShare * rewardsPerDay * (block.timestamp - lastTimeStamp)/86400;\r\n        }\r\n    }\r\n\r\n    // claim rewards\r\n    function claimRewards(uint256 amount) public {\r\n        require(stakingDetails[msg.sender].stakerMarked); // require that the caller is a staker\r\n        require(stakingDetails[msg.sender].stakingRewards > 0); // require that the caller has rewards\r\n        require(amount <= stakingDetails[msg.sender].stakingRewards);\r\n        IERC20(rewardToken).transferFrom(address(this), msg.sender, amount);\r\n        rewardsBalance -= amount;\r\n        totalPendingRewards -= amount;\r\n        totalClaimed += amount;\r\n    }\r\n\r\n    \r\n\r\n    // changeAllowedToken\r\n    function changeAllowedToken(address token) public onlyOwner {\r\n        allowedToken = token;\r\n    }\r\n\r\n    // pauseStaking\r\n    function pauseStaking() public onlyOwner {\r\n        require(!stakingPaused, \"Staking is currently paused\");\r\n        stakingPaused = true;\r\n    }\r\n\r\n    // unpauseStaking\r\n    function unpauseStaking() public onlyOwner {\r\n        require(stakingPaused, \"Staking is currently unpaused\");\r\n        stakingPaused = false;\r\n    }\r\n}",
  "sourcePath": "C:\\Users\\FH\\Documents\\OneRing\\onering-staking-evm\\contracts\\RingStaking.sol",
  "compiler": {
    "name": "solc",
    "version": "0.8.11+commit.d7f03943.Emscripten.clang"
  },
  "schemaVersion": "3.4.4",
  "updatedAt": "2022-04-18T16:11:55.216Z",
  "devdoc": {
    "kind": "dev",
    "methods": {
      "owner()": {
        "details": "Returns the address of the current owner."
      },
      "renounceOwnership()": {
        "details": "Leaves the contract without owner. It will not be possible to call `onlyOwner` functions anymore. Can only be called by the current owner. NOTE: Renouncing ownership will leave the contract without an owner, thereby removing any functionality that is only available to the owner."
      },
      "transferOwnership(address)": {
        "details": "Transfers ownership of the contract to a new account (`newOwner`). Can only be called by the current owner."
      }
    },
    "version": 1
  },
  "userdoc": {
    "kind": "user",
    "methods": {},
    "version": 1
  }
}